:100000000C942A000C9447000C9447000C94470071
:100010000C9447000C9447000C9447000C94470044
:100020000C9447000C9447000C9447000C94470034
:100030000C9447000C9447000C9447000C94470024
:100040000C9447000C9447000C9447000C94470014
:100050000C94470011241FBECFE5D8E0DEBFCDBF12
:1000600012E0A0E6B0E0EAE0F6E102C005900D92F1
:10007000AE3BB107D9F722E0AEEBB2E001C01D9272
:10008000A03CB207E1F70E946A030C94030B0C94A6
:1000900000001F93CF93DF93D82F162FC42F0E94F9
:1000A0005B010E949001612F8D2F0E942A058C2FE9
:1000B0000E943405DF91CF911F9108958F929F92F6
:1000C000AF92BF92CF92DF92EF92FF920F931F9366
:1000D000CF93DF93CDB7DEB7E7970FB6F894DEBFC7
:1000E0000FBECDBFFE0131968FE0DF011D928A95D4
:1000F000E9F701900020E9F7319784E290E09183DD
:100100008083FE01709601900020E9F7319786E226
:1001100090E091838083812C912C5401E0E0F0E009
:1001200000E010E068C0DE0150960D900020E9F775
:10013000119787E290E08D939C930F5F1F4FBFEF65
:10014000CB1ADB0AEB0AFB0A03C0C12CD12C7601C7
:100150008091BE029091BF026AE070E00E94830726
:10016000CB01770FAA0BBB0BC816D906EA06FB0614
:10017000D0F2DE0150960D900020E9F7119789E248
:1001800090E08D939C93C12CD12C760110C0DE01A0
:1001900050960D900020E9F7119788E290E08D933A
:1001A0009C9331968FEFC81AD80AE80AF80A809112
:1001B000BE029091BF022AE030E0B9010E9483079D
:1001C000C901861B970B092E000CAA0BBB0BC81686
:1001D000D906EA06FB06D8F2DE0150960D90002003
:1001E000E9F7119786E290E08D939C93AFEF8A1A1E
:1001F0009A0AAA0ABA0AB2E08B169104A104B104C1
:1002000008F4A3CFE00FF11FFF230CF43196F5950E
:10021000E7950BC0DE0111960D900020E9F71197CC
:1002200083E290E08D939C9331971E161F0694F302
:10023000BE016F5F7F4FFB0101900020E9F731970E
:1002400080E490E09183808340E086E00E94B801E2
:1002500040E0BE01605F7F4F87E00E94B801E796F3
:100260000FB6F894DEBF0FBECDBFDF91CF911F91C7
:100270000F91FF90EF90DF90CF90BF90AF909F9045
:100280008F9008950E94090408958BBB85B38E7FDB
:1002900085BB85B38D7F85BB85B3846085BB8AE1D3
:1002A0008A95F1F700C085B38B7F85BB8AE18A957B
:1002B000F1F700C008958FEF8ABB84BB85B38863D4
:1002C00085BB2FEF89EF90E0215080409040E1F70F
:1002D00000C000008EE30E94450180E40E944501B9
:1002E00088EB0E94450180EC0E9445018FE30E944B
:1002F000450108958BBB85B3816085BB85B38D7F38
:1003000085BB85B3846085BB8AE18A95F1F700C01F
:1003100085B38B7F85BB8AE18A95F1F700C008958C
:100320000F931F93CF93DF9385B3886185BB00E064
:1003300010E010C088EB800F0E944501C0E0D0E0C3
:1003400004C080E00E947A012196C034D105CCF32C
:100350000F5F1F4F083011056CF380E40E944501C8
:1003600088EB0E944501DF91CF911F910F91089575
:100370002F923F924F925F926F927F928F929F92B5
:10038000AF92BF92CF92DF92EF92FF920F931F93A3
:10039000CF93DF93CDB7DEB72A970FB6F894DEBFC1
:1003A0000FBECDBF78876F83282F30E03E832D832B
:1003B000C90188549F4F9C838B83411107C025B38B
:1003C000286025BB25B32F7E25BB06C025B3206141
:1003D00025BB25B3277F25BB0E944501512C312C1D
:1003E000212C0F2EFFE34F2EF02D1A8619861A822C
:1003F00019824AC16D807E807194619471087694EF
:10040000762C66247794679495E0691A9CEF790AB4
:10041000E985FA856E167F0608F440C1803209F03E
:1004200048C050C0A984BA84AE0CBF1C20E030E0A4
:1004300040E05FE3652D732D822D942D0E944B05C6
:10044000C62ED72E082F192F0E942E067695762FAE
:10045000662777956795A616B70639F5F5E0EF1686
:10046000F10481F180E40E94450195B388E0892779
:1004700085BB95B380E1892785BB2B813C81B90180
:1004800080E090E00E946406252D332D422D542DEE
:100490000E944B050E943506862F0E9445015C2C68
:1004A0003D2C202E412EBA86A9863FEFE31AF30A8F
:1004B00003C0EE24E394F12C96E0E916F10408F46D
:1004C000B1CF00C089859A856816790608F4E6C020
:1004D000F4018081803209F44BC000E010E096C046
:1004E000F401808190E08097FC01EE0FFF1FEE0F7A
:1004F000FF1FE80FF91FE05AFF4FE00FF11F808147
:100500000E947A0129853A852F5F3F4F3A872987D4
:10051000C9018F739927892B41F595B388E0892705
:1005200085BB95B380E1892785BBEB81FC81BF0149
:1005300080E090E00E946406252D332D422D542D3D
:100540000E944B050E943506862F0E94450120E03F
:1005500030E040E05FE3652D732D822D942D0E94E5
:100560004B05562E372E282E492E0F5F1F4F02C0E7
:1005700000E010E00530110508F4B2CF7FC0F401AF
:10058000808190E08097FC01EE0FFF1FEE0FFF1FB0
:10059000E80FF91FE05AFF4FE00FF11F80810E9422
:1005A0007A0129853A852F5F3F4F3A872987C9010C
:1005B0008F739927892B41F595B388E0892785BBEF
:1005C00095B380E1892785BBEB81FC81BF0180E089
:1005D00090E00E946406252D332D422D542D0E945B
:1005E0004B050E943506862F0E94450120E030E031
:1005F00040E05FE3652D732D822D942D0E944B0505
:10060000562E372E282E492E0F5F1F4F053011050D
:1006100008F4B5CF80E00E947A0189859A85019619
:100620009A8789878F739927892B41F595B388E03D
:10063000892785BB95B380E1892785BBEB81FC8148
:10064000BF0180E090E00E946406252D332D422DED
:10065000542D0E944B050E943506862F0E944501AD
:1006600020E030E040E05FE3652D732D822D942D76
:100670000E944B05562E372E282E492E29813A816D
:100680002F5F3F4F3A8329838F80988489819A8195
:10069000880E991EF40180818111ACCE80E40E9405
:1006A00045012A960FB6F894DEBF0FBECDBFDF918D
:1006B000CF911F910F91FF90EF90DF90CF90BF905F
:1006C000AF909F908F907F906F905F904F903F90F2
:1006D0002F90089546E462E088E60E9449000E9457
:1006E00042010E945E00FBCFCF92DF92EF92FF9219
:1006F0000F931F93CF93DF93CDB7DEB7C357D109C5
:100700000FB6F894DEBF0FBECDBF6B017C0100E0D9
:1007100010E00CC020E030E040E251E4C701B60137
:100720000E9416076B017C010F5F1F4F20E030E035
:1007300040E85FE3C701B6010E94B705882354F380
:1007400020E030E040E251E4C701B6010E94160704
:100750000E942E062AE0AE014F5F5F4F0E94D8072D
:100760001C861B86FE013D9682E6DF011D928A955E
:10077000E9F78DE693E7E1969FAF8EAFE197E396B9
:100780001FAE1EAEE397E4961FAEE497329701903A
:100790000020E9F7319780E39EE291838083128203
:1007A00080E090E00BC0FE013B9601900020E9F74D
:1007B000319720E330E03183208301969801215066
:1007C0003109821793077CF3BE016F5F7F4FCE0123
:1007D0000B960E94CD07BE0161597F4FCE010B964B
:1007E0000E94CD0740E0BE01655F7F4F84E00E941C
:1007F000B801CD58DF4F0FB6F894DEBF0FBECDBFA6
:10080000DF91CF911F910F91FF90EF90DF90CF90EC
:1008100008954F925F926F927F928F929F92AF92C4
:10082000BF92CF92DF92EF92FF920F931F93CF93DD
:10083000DF93CDB7DEB7CE57D1090FB6F894DEBF40
:100840000FBECDBFFE01319687E0DF011D928A9574
:10085000E9F737968EE0DF011D928A95E9F71FBC14
:100860001DBC1CBC80E288BF81EC8EBD08B605FEB5
:10087000FDCF86B597B520E228BF21EC2EBD08B686
:1008800005FEFDCFC6B4D7B420E228BF21E82EBDB7
:1008900008B605FEFDCF06B517B520E228BF1EBC81
:1008A0008C159D0508F0ADC0C016D10608F0A9C092
:1008B0000C191D09C81AD90AE12CF12C60E074E268
:1008C00084EF90E0A70196010E949707CA01B90141
:1008D00028EE33E040E050E00E94970749015A01BA
:1008E000B80180E090E00E9464062B013C01C70142
:1008F000B6010E9464069B01AC01C301B2010E94D3
:10090000BC0520E030E048EC52E40E9416070E944B
:100910002E067093BF026093BE02C501B4010E940F
:1009200064069B01AC0160E070E080E89FE30E94F8
:10093000BC056B017C012AE0AE01485F5F4FC50139
:10094000B4010E94D80786E0E0E4F2E0DE015696AA
:1009500001900D928A95E1F7FE017C968EE5DF010C
:100960001D928A95E9F78BE498E6EC969FAF8EAFDF
:10097000EC978AE790E0EE969FAF8EAFEE97EF96FA
:100980001FAEEF97BE01685F7F4FCE0146960E9473
:10099000CD07BE0166587F4FCE0146960E94CD0717
:1009A00040E0BE016A5E7F4F81E00E94B801809105
:1009B000BF028F938091BE028F9384EA92E09F934F
:1009C0008F938E010F5F1F4F1F930F930E94090893
:1009D000F80101900020E9F7319785E290E09183DA
:1009E000808341E0B80181E00E94B801C701B601EF
:1009F0000E9474030F900F900F900F900F900F9024
:100A000008C00E94900140E06FEA72E081E00E941D
:100A1000B801BFEF20E782E0B15020408040E1F70D
:100A200000C00000C258DF4F0FB6F894DEBF0FBE03
:100A3000CDBFDF91CF911F910F91FF90EF90DF908D
:100A4000CF90BF90AF909F908F907F906F905F906E
:100A50004F90089597B3986097BB93B7892B83BF46
:100A600083B7682B63BF0895682F70E080E090E043
:100A70000E94640620E030E048EC52E40E94BC058D
:100A800020E030E04FE753E40E9416070E9435064D
:100A90006CBF08955058BB27AA270E9462050C948A
:100AA000DC060E94CE0638F00E94D50620F039F40C
:100AB0009F3F19F426F40C94CB060EF4E095E7FB67
:100AC0000C94C506E92F0E94ED0658F3BA17620789
:100AD00073078407950720F079F4A6F50C940F07A7
:100AE0000EF4E0950B2EBA2FA02D0B01B901900149
:100AF0000C01CA01A0011124FF27591B99F0593F8D
:100B000050F4503E68F11A16F040A22F232F342FD4
:100B10004427585FF3CF469537952795A795F04022
:100B20005395C9F77EF41F16BA0B620B730B840B37
:100B3000BAF09150A1F0FF0FBB1F661F771F881FEF
:100B4000C2F70EC0BA0F621F731F841F48F4879547
:100B500077956795B795F7959E3F08F0B0CF939539
:100B6000880F08F09927EE0F9795879508950E94B2
:100B7000A10608F481E008950E94D0050C94DC06DB
:100B80000E94D50658F00E94CE0640F029F45F3F3F
:100B900029F00C94C50651110C9410070C94CB0647
:100BA0000E94ED0668F39923B1F3552391F3951B49
:100BB000550BBB27AA2762177307840738F09F5F7E
:100BC0005F4F220F331F441FAA1FA9F335D00E2EEB
:100BD0003AF0E0E832D091505040E695001CCAF758
:100BE0002BD0FE2F29D0660F771F881FBB1F26171B
:100BF00037074807AB07B0E809F0BB0B802DBF01F2
:100C0000FF2793585F4F3AF09E3F510578F00C94C0
:100C1000C5060C9410075F3FE4F3983ED4F3869525
:100C200077956795B795F7959F5FC9F7880F911DE1
:100C30009695879597F90895E1E0660F771F881FCD
:100C4000BB1F621773078407BA0720F0621B730B80
:100C5000840BBA0BEE1F88F7E09508950E943506C5
:100C60006894B1110C94100708950E94F50688F05D
:100C70009F5798F0B92F9927B751B0F0E1F0660F60
:100C8000771F881F991F1AF0BA95C9F714C0B130A1
:100C900091F00E940F07B1E008950C940F07672FA1
:100CA000782F8827B85F39F0B93FCCF386957795D0
:100CB0006795B395D9F73EF49095809570956195B9
:100CC0007F4F8F4F9F4F0895E89409C097FB3EF4E4
:100CD00090958095709561957F4F8F4F9F4F992389
:100CE000A9F0F92F96E9BB279395F6958795779507
:100CF0006795B795F111F8CFFAF4BB0F11F460FFC7
:100D00001BC06F5F7F4F8F4F9F4F16C0882311F01E
:100D100096E911C0772321F09EE8872F762F05C032
:100D2000662371F096E8862F70E060E02AF09A95CD
:100D3000660F771F881FDAF7880F9695879597F9C2
:100D40000895990F0008550FAA0BE0E8FEEF16165C
:100D50001706E807F907C0F012161306E407F507AF
:100D600098F0621B730B840B950B39F40A2661F023
:100D7000232B242B252B21F408950A2609F4A140C6
:100D8000A6958FEF811D811D089597F99F6780E8D3
:100D900070E060E008959FEF80EC089500240A94CD
:100DA0001616170618060906089500240A94121646
:100DB0001306140605060895092E0394000C11F479
:100DC000882352F0BB0F40F4BF2B11F460FF04C026
:100DD0006F5F7F4F8F4F9F4F089557FD9058440F7F
:100DE000551F59F05F3F71F04795880F97FB991F8A
:100DF00061F09F3F79F08795089512161306140647
:100E0000551FF2CF4695F1DF08C0161617061806D3
:100E1000991FF1CF86957105610508940895E894AE
:100E2000BB2766277727CB0197F908950E942907EA
:100E30000C94DC060E94CE0638F00E94D50620F005
:100E4000952311F00C94C5060C94CB0611240C9438
:100E500010070E94ED0670F3959FC1F3950F50E0C7
:100E6000551F629FF001729FBB27F00DB11D639F5C
:100E7000AA27F00DB11DAA1F649F6627B00DA11D02
:100E8000661F829F2227B00DA11D621F739FB00DA8
:100E9000A11D621F839FA00D611D221F749F332718
:100EA000A00D611D231F849F600D211D822F762FB1
:100EB0006A2F11249F5750409AF0F1F088234AF08E
:100EC000EE0FFF1FBB1F661F771F881F91505040FA
:100ED000A9F79E3F510580F00C94C5060C941007AD
:100EE0005F3FE4F3983ED4F3869577956795B79581
:100EF000F795E7959F5FC1F7FE2B880F911D96959B
:100F0000879597F9089597FB072E16F4009407D05C
:100F100077FD09D00E94B90707FC05D03EF49095F3
:100F200081959F4F0895709561957F4F0895A1E237
:100F30001A2EAA1BBB1BFD010DC0AA1FBB1FEE1F53
:100F4000FF1FA217B307E407F50720F0A21BB30B9E
:100F5000E40BF50B661F771F881F991F1A9469F71A
:100F600060957095809590959B01AC01BD01CF0176
:100F70000895AA1BBB1B51E107C0AA1FBB1FA617E0
:100F8000B70710F0A61BB70B881F991F5A95A9F732
:100F900080959095BC01CD010895FB01DC010D9079
:100FA0000020E9F7119701900D920020E1F70895D4
:100FB000BB272A3051F4992342F4BDE290958095E5
:100FC000709561957F4F8F4F9F4F0C94E807BB271B
:100FD000FA01A62F6217710581059105330B30FBCD
:100FE00066F0AA27660F771F881F991FAA1FA217EE
:100FF00010F0A21B63953850A9F7A05DAA3308F042
:10100000A95DA19336F7B111B1931082CA010C9476
:10101000220AAEE0B0E0EFE0F8E00C94DA0A0D89C5
:101020001E8986E08C831A8309838FEF9FE79E8356
:101030008D83AE01475E5F4F6F89788DCE0101963B
:101040000E942B08EF81F885E00FF11F10822E9689
:10105000E4E00C94F60AABE0B0E0E1E3F8E00C94D5
:10106000CC0A6C017B018A01FC0117821682838104
:1010700081FFCCC1CE0101963C01F6019381F701BD
:1010800093FD859193FF81917F01882309F4BAC173
:10109000853239F493FD859193FF81917F018532EB
:1010A00029F4B60190E00E94320AE7CF912C212C5E
:1010B000312CFFE1F315D8F08B3279F038F480321F
:1010C00079F08332A1F4232D20611DC08D3261F0AF
:1010D000803369F4232D216016C0832D8260382E61
:1010E000E32DE4603E2E2AC0F32DF8601DC037FCCE
:1010F0002DC020ED280F2A3040F08E32B9F436FC96
:1011000081C1232D2064322E19C036FE06C08AE02C
:10111000989E200D1124922E11C0EAE02E9E200DE3
:101120001124222EF32DF0623F2E08C08C3621F4BC
:10113000832D8068382E02C0883641F4F70193FD74
:10114000859193FF81917F018111B3CF982F9F7D6E
:101150009554933028F40C5F1F4F9FE399830DC083
:10116000833631F0833771F0833509F059C021C0DF
:10117000F801808189830E5F1F4F88248394912C0E
:10118000530113C02801F2E04F0E511CF801A0805A
:10119000B18036FE03C0692D70E002C06FEF7FEFB3
:1011A000C5010E94170A4C018201F32DFF773F2EE3
:1011B00016C0280122E0420E511CF801A080B18027
:1011C00036FE03C0692D70E002C06FEF7FEFC501EE
:1011D0000E940C0A4C01F32DF0683F2E820133FC73
:1011E0001BC0822D90E088169906B0F4B60180E20B
:1011F00090E00E94320A2A94F4CFF50137FC8591E1
:1012000037FE81915F01B60190E00E94320A211001
:101210002A9421E0821A91088114910471F7E8C0A0
:10122000843611F0893641F5F80137FE07C0608138
:101230007181828193810C5F1F4F08C06081718131
:10124000072E000C880B990B0E5F1F4FF32DFF76B6
:101250003F2E97FF09C090958095709561957F4FBF
:101260008F4F9F4FF0683F2E2AE030E0A3010E948D
:101270006E0A882E861845C0853731F4232D2F7EBF
:10128000B22E2AE030E025C0932D997FB92E8F36FB
:10129000C1F018F4883579F0B5C0803719F0883777
:1012A00021F0B0C0E92FE061BE2EB4FE0DC0FB2DD1
:1012B000F460BF2E09C034FE0AC0292F2660B22E6A
:1012C00006C028E030E005C020E130E002C020E1A7
:1012D00032E0F801B7FE07C060817181828193819D
:1012E0000C5F1F4F06C06081718180E090E00E5F4F
:1012F0001F4FA3010E946E0A882E8618FB2DFF77D0
:101300003F2E36FE0DC0232D2E7FA22E891458F4B9
:1013100034FE0BC032FC09C0832D8E7EA82E05C082
:10132000B82CA32C03C0B82C01C0B92CA4FE0FC04C
:10133000FE01E80DF11D8081803321F49A2D997E04
:10134000A92E09C0A2FE06C0B394B39404C08A2D8E
:10135000867809F0B394A3FC11C0A0FE06C0B214B5
:1013600088F4280C922C9B180EC0B21460F4B601BD
:1013700080E290E00E94320AB394F7CFB21418F4DE
:101380002B1802C0982C212CA4FE10C0B60180E3BB
:1013900090E00E94320AA2FE17C0A1FC03C088E7B9
:1013A00090E002C088E590E0B6010CC08A2D8678F6
:1013B00059F0A1FE02C08BE201C080E2A7FC8DE2E1
:1013C000B60190E00E94320A891438F4B60180E335
:1013D00090E00E94320A9A94F7CF8A94F301E80DC4
:1013E000F11D8081B60190E00E94320A8110F5CF94
:1013F000222009F442CEB60180E290E00E94320A37
:101400002A94F6CFF6018681978102C08FEF9FEF75
:101410002B96E2E10C94E80AFC01059061507040C3
:101420000110D8F7809590958E0F9F1F0895FC01AD
:101430006150704001900110D8F7809590958E0F03
:101440009F1F0895DC01FC01672F71917723E1F75D
:10145000329704C07C916D9370836291AE17BF0781
:10146000C8F308950F931F93CF93DF93FB0123815C
:1014700021FD03C08FEF9FEF2CC022FF16C04681D5
:101480005781248135814217530744F4A081B181EB
:101490009D012F5F3F4F318320838C9326813781BD
:1014A0002F5F3F4F3783268314C08B01EC01FB0174
:1014B0000084F185E02D0995892BE1F6D801169677
:1014C0008D919C911797019617969C938E931697E2
:1014D000CE01DF91CF911F910F910895FA01AA27B4
:1014E000283051F1203181F1E8946F936E7F6E5F67
:1014F0007F4F8F4F9F4FAF4FB1E03ED0B4E03CD015
:10150000670F781F891F9A1FA11D680F791F8A1FF7
:10151000911DA11D6A0F711D811D911DA11D20D05E
:1015200009F468943F912AE0269F11243019305D18
:101530003193DEF6CF010895462F4770405D419309
:10154000B3E00FD0C9F7F6CF462F4F70405D4A3356
:1015500018F0495D31FD4052419302D0A9F7EACF1E
:10156000B4E0A6959795879577956795BA95C9F74D
:1015700000976105710508959B01AC010A2E069440
:101580005795479537952795BA95C9F7620F731FF9
:10159000841F951FA01D08952F923F924F925F9236
:1015A0006F927F928F929F92AF92BF92CF92DF9273
:1015B000EF92FF920F931F93CF93DF93CDB7DEB7D8
:1015C000CA1BDB0B0FB6F894DEBF0FBECDBF09946C
:1015D0002A88398848885F846E847D848C849B84C3
:1015E000AA84B984C884DF80EE80FD800C811B81D1
:1015F000AA81B981CE0FD11D0FB6F894DEBF0FBE00
:0A160000CDBFED010895F894FFCF6F
:10160A00000000000000005F00000007000700184B
:10161A0018181818FF3C7EDB9923130864624040AF
:10162A007E02020202020202404040404002027E62
:10163A00404014083E081408083E080800503000CC
:10164A00000808080808006060000020100804026A
:10165A003E5149453E00427F400042615149462180
:10166A0041454B311814127F1027454545393C4AEC
:10167A00494930017109050336494949360649493C
:10168A00291E003636000000563600000814224192
:10169A0000141414141400412214080201510906FA
:1016AA0099DB7E3CFF7E1111117E7F494949363E06
:1016BA00414141227F4141221C7F494949417F09D9
:1016CA000909013E4149497A7F0808087F00417F9C
:1016DA0041002040413F017F081422417F404040A1
:1016EA00407F020C027F7F0408107F3E4141413E49
:1016FA007F090909063E4151215E7F09192946469B
:10170A004949493101017F01013F4040403F1F20C3
:10171A0040201F3F4038403F631408146307087095
:10172A0008076151494543007F41410002040810FE
:10173A00200041417F000402010204404040404031
:10174A00000102040020545454787F484444383835
:10175A0044444420384444487F3854545418087E3A
:10176A000901020C5252523E7F0804047800447D5B
:10177A0040002040443D007F1028440000417F4043
:10178A00007C041804787C080404783844444438FB
:10179A007C14141408081414187C7C0804040848DF
:1017AA0054545420043F4440203C4040207C1C2098
:1017BA0040201C3C4030403C44281028440C5050E7
:1017CA00503C4464544C44000836410000007F00F9
:1017DA00000041360800100808100878464146788B
:1017EA00467265713A000000000000000000000027
:1017FA0000000000000000000000000000000000DF
:10180A0000000000000000000000000000000000CE
:10181A0000000000000000000000000000000000BE
:10182A0000000000000000000000000000000000AE
:10183A00000000000000000000000000000000009E
:10184A0000000000202020447574793A2564004F76
:0E185A005554204F462052414E474521210053
:00000001FF
